{
  "address": "0x6873cdeFB56D56D8B55321df6d9d4bd7d95C21Ab",
  "abi": [
    {
      "inputs": [
        {
          "internalType": "contract IAlgebraFactory",
          "name": "_factory",
          "type": "address"
        },
        {
          "internalType": "contract INonfungiblePositionManager",
          "name": "_positionManager",
          "type": "address"
        },
        {
          "internalType": "address",
          "name": "_WNativeToken",
          "type": "address"
        },
        {
          "internalType": "contract PresaleManager",
          "name": "_presaleManager",
          "type": "address"
        },
        {
          "internalType": "address",
          "name": "_feeVault",
          "type": "address"
        }
      ],
      "stateMutability": "nonpayable",
      "type": "constructor"
    },
    {
      "stateMutability": "payable",
      "type": "fallback"
    },
    {
      "inputs": [],
      "name": "WNativeToken",
      "outputs": [
        {
          "internalType": "address",
          "name": "",
          "type": "address"
        }
      ],
      "stateMutability": "view",
      "type": "function"
    },
    {
      "inputs": [
        {
          "internalType": "uint160",
          "name": "sqrtPriceX96",
          "type": "uint160"
        },
        {
          "internalType": "string",
          "name": "name",
          "type": "string"
        },
        {
          "internalType": "string",
          "name": "symbol",
          "type": "string"
        },
        {
          "internalType": "uint256",
          "name": "totalSupply",
          "type": "uint256"
        },
        {
          "internalType": "uint256",
          "name": "minterAllocation",
          "type": "uint256"
        },
        {
          "internalType": "int24",
          "name": "bottomTick",
          "type": "int24"
        },
        {
          "internalType": "int24",
          "name": "topTick",
          "type": "int24"
        },
        {
          "internalType": "uint256",
          "name": "presaleAmount",
          "type": "uint256"
        },
        {
          "internalType": "string",
          "name": "data",
          "type": "string"
        }
      ],
      "name": "create",
      "outputs": [],
      "stateMutability": "payable",
      "type": "function"
    },
    {
      "inputs": [],
      "name": "ethFee",
      "outputs": [
        {
          "internalType": "uint256",
          "name": "",
          "type": "uint256"
        }
      ],
      "stateMutability": "view",
      "type": "function"
    },
    {
      "inputs": [],
      "name": "factory",
      "outputs": [
        {
          "internalType": "contract IAlgebraFactory",
          "name": "",
          "type": "address"
        }
      ],
      "stateMutability": "view",
      "type": "function"
    },
    {
      "inputs": [],
      "name": "fee",
      "outputs": [
        {
          "internalType": "uint256",
          "name": "",
          "type": "uint256"
        }
      ],
      "stateMutability": "view",
      "type": "function"
    },
    {
      "inputs": [],
      "name": "minimalTotalSupply",
      "outputs": [
        {
          "internalType": "uint256",
          "name": "",
          "type": "uint256"
        }
      ],
      "stateMutability": "view",
      "type": "function"
    },
    {
      "inputs": [
        {
          "internalType": "address",
          "name": "operator",
          "type": "address"
        },
        {
          "internalType": "address",
          "name": "",
          "type": "address"
        },
        {
          "internalType": "uint256",
          "name": "tokenId",
          "type": "uint256"
        },
        {
          "internalType": "bytes",
          "name": "",
          "type": "bytes"
        }
      ],
      "name": "onERC721Received",
      "outputs": [
        {
          "internalType": "bytes4",
          "name": "",
          "type": "bytes4"
        }
      ],
      "stateMutability": "nonpayable",
      "type": "function"
    },
    {
      "inputs": [],
      "name": "positionManager",
      "outputs": [
        {
          "internalType": "contract INonfungiblePositionManager",
          "name": "",
          "type": "address"
        }
      ],
      "stateMutability": "view",
      "type": "function"
    },
    {
      "inputs": [],
      "name": "presaleManager",
      "outputs": [
        {
          "internalType": "contract PresaleManager",
          "name": "",
          "type": "address"
        }
      ],
      "stateMutability": "view",
      "type": "function"
    },
    {
      "stateMutability": "payable",
      "type": "receive"
    }
  ],
  "transactionHash": "0xc838e7459476f700c0d4f4fe1ad839fc400148f84c5d12b015daef0b7fcd8b4a",
  "args": [
    "0xB5F00c2C5f8821155D8ed27E31932CFD9DB3C5D5",
    "0x2e8614625226D26180aDf6530C3b1677d3D7cf10",
    "0x4200000000000000000000000000000000000006",
    "0x528394CE0Ad04956305F0D5C10251FeCc7882f6c",
    "0x067DA6Dc0B6f8a0481fF1E648D5D30d87B753b6b"
  ],
  "numDeployments": 2,
  "solcInputHash": "6523e5f34d40efa8c52693280e8a7dc0",
  "bytecode": "0x60a03461012f57601f611cee38819003918201601f19168301916001600160401b038311848410176101345780849260a09460405283398101031261012f5780516001600160a01b0380821692909183900361012f5760208101519082821680920361012f576100716040820161014a565b60608201519184831680930361012f57608061008d910161014a565b9274c1313f9dee835569f1aaea51854818c72cd630250960018060a81b03196000541617600055662386f26fc100006001556601c6bf526340006002556a084595161401484a00000060045560018060a01b03199586600554161760055585600654161760065560805283600754161760075516906003541617600355604051611b8f908161015f823960805181818160f80152818161039401526105b00152f35b600080fd5b634e487b7160e01b600052604160045260246000fd5b51906001600160a01b038216820361012f5756fe608060405260043610156200001a575b36156200001857005b005b6000803560e01c80631016e9901462000245578063150b7a0214620001bd5780632c012f8914620001925780634cf1115d14620001725780636791e7421462000152578063791b98bc14620001275780638af3ac8514620000e0578063c45a015514620000b55763ddca3f43146200009357506200000f565b34620000b25780600319360112620000b2576020600154604051908152f35b80fd5b5034620000b25780600319360112620000b2576005546040516001600160a01b039091168152602090f35b5034620000b25780600319360112620000b2576040517f00000000000000000000000000000000000000000000000000000000000000006001600160a01b03168152602090f35b5034620000b25780600319360112620000b2576006546040516001600160a01b039091168152602090f35b5034620000b25780600319360112620000b2576020600454604051908152f35b5034620000b25780600319360112620000b2576020600254604051908152f35b5034620000b25780600319360112620000b2576007546040516001600160a01b039091168152602090f35b5034620000b2576080366003190112620000b2576001600160a01b0360043581811603620002405760243590811603620002405760643567ffffffffffffffff8082116200023c57366023830112156200023c5781600401359081116200023c5736910160240111620000b257604051630a85bd0160e11b8152602090f35b8280fd5b600080fd5b50610120366003190112620000b257600435906001600160a01b0382168203620000b25767ffffffffffffffff916024358381116200023c576200028e90369060040162000d6e565b9060443584811162000cfe57620002aa90369060040162000d6e565b9060a435948560020b860362000cfa5760c435918260020b830362000cf657610104358281116200093c57620002e590369060040162000d6e565b91600454606435111562000ca557606435608435101562000c4e57600254341062000c09576040519081610d1281011090610d128301111762000bf557610d1262000e4882396060610d1282015280620003626200034b6060610d128401018962000dca565b610d12830181036020610d12850101528762000dca565b6064356040610d1284010152039087f090811562000bea5760055460405163e343361560e01b81526001600160a01b037f000000000000000000000000000000000000000000000000000000000000000081166004830152938416602482018190529093909291602091859160449183918d91165af19283156200094057889362000bc4575b50600154606435816064350204811460643515171562000bb05760035460405163a9059cbb60e01b81526001600160a01b039091166004820152670de0b6b3a7640000606435929092029190910460248201526020816044818c875af1801562000a655762000b8c575b508780808060018060a01b03600354166002549082821562000b82575bf115620009a85760843562000b25575b6040516370a0823160e01b815230600482015290602082602481865afa91821562000a6557899262000aeb575b5060405163095ea7b360e01b81526001600160a01b0385166004820152602481018390526020816044818d885af1801562000abc5762000ac7575b5060065460405163095ea7b360e01b81526001600160a01b039091166004820152602481018390526020816044818d885af1801562000abc5762000a86575b506001600160a01b0384163b156200094b5760405163f637731d60e01b81526001600160a01b03918216600482015290899082906024908290849089165af1801562000a655762000a70575b50604051630dfe168160e01b81526020816004816001600160a01b0388165afa90811562000a6557899162000a41575b506001600160a01b039081167f00000000000000000000000000000000000000000000000000000000000000009091160362000a3957875b600654604051630dfe168160e01b81529a6001600160a01b0391821697916020908d9060049082908a165afa9b8c1562000a2e578b9c62000a08575b5060405163d21220a760e01b81526020816004816001600160a01b038b165afa908115620009fd578c91620009c7575b50606442014211620009b3579361012093610144938d9e9360809760405195620006708762000d2d565b60018060a01b0316865260018060a01b0316602086015260020b604085015260020b60608401528583015260a08201528a60c08201528a60e08201523061010082015260644201838201528a6040519889948593639cc1a28360e01b855260018060a01b03815116600486015260018060a01b036020820151166024860152604081015160020b6044860152606081015160020b606486015287810151608486015260a081015160a486015260c081015160c486015260e081015160e486015260018060a01b036101008201511661010486015201516101248401525af1938415620009a85787946200094f575b506006546007546001600160a01b039081169116803b156200094b5760405163095ea7b360e01b81526001600160a01b039290921660048301526024820186905288908290604490829084905af19081156200094057889162000924575b505060018060a01b03600754169460405196620007d98862000d2d565b8752602087015260e435604087015260608601526001600160a01b0316608085015260643560a085015260843560c085015260e08401526101008301526101208201839052803b156200092057829182916040518094818094633c1d0d7760e01b825260206004830152610120620008d8620008648351610140602487015261016486019062000dca565b62000882602085015191602319928388830301604489015262000dca565b6040850151606487015260608501516001600160a01b03908116608488015260808601511660a487015260a085015160c487015260c085015160e487015260e08501518682039092016101048701529062000dca565b916101008101516101248501520151151561014483015203925af180156200091557620009025750f35b6200090d9062000d02565b620000b25780f35b6040513d84823e3d90fd5b5050fd5b6200092f9062000d02565b6200093c578638620007bc565b8680fd5b6040513d8a823e3d90fd5b8880fd5b9093506080813d6080116200099f575b816200096e6080938362000d4b565b810103126200093c57602081519101516fffffffffffffffffffffffffffffffff8116036200093c5792386200075e565b3d91506200095f565b6040513d89823e3d90fd5b634e487b7160e01b8c52601160045260248cfd5b620009ee915060203d602011620009f5575b620009e5818362000d4b565b81019062000e0c565b3862000646565b503d620009d9565b6040513d8e823e3d90fd5b62000a26919c5060203d602011620009f557620009e5818362000d4b565b9a3862000616565b6040513d8d823e3d90fd5b8790620005da565b62000a5e915060203d602011620009f557620009e5818362000d4b565b38620005a2565b6040513d8b823e3d90fd5b62000a7e9098919862000d02565b963862000572565b62000aac9060203d60201162000ab4575b62000aa3818362000d4b565b81019062000e2d565b503862000526565b503d62000a97565b6040513d8c823e3d90fd5b62000ae39060203d60201162000ab45762000aa3818362000d4b565b5038620004e7565b9091506020813d60201162000b1c575b8162000b0a6020938362000d4b565b810103126200094b57519038620004ac565b3d915062000afb565b60405163a9059cbb60e01b815233600482015260843560248201526020816044818c875af1801562000a655762000b5e575b506200047f565b62000b7a9060203d60201162000ab45762000aa3818362000d4b565b503862000b57565b506108fc6200046f565b62000ba89060203d60201162000ab45762000aa3818362000d4b565b503862000452565b634e487b7160e01b89526011600452602489fd5b62000be291935060203d602011620009f557620009e5818362000d4b565b9138620003e8565b6040513d88823e3d90fd5b634e487b7160e01b87526041600452602487fd5b60405162461bcd60e51b815260206004820152601b60248201527f546f6b656e4d616b6572203a2066656520697320746f6f206c6f7700000000006044820152606490fd5b60405162461bcd60e51b815260206004820152602960248201527f546f6b656e4d616b6572203a206d696e746572416c6c6f636174696f6e206973604482015268040e8dede40d0d2ced60bb1b6064820152608490fd5b60405162461bcd60e51b815260206004820152602360248201527f546f6b656e4d616b6572203a20746f74616c537570706c7920697320746f6f206044820152626c6f7760e81b6064820152608490fd5b8580fd5b8480fd5b8380fd5b67ffffffffffffffff811162000d1757604052565b634e487b7160e01b600052604160045260246000fd5b610140810190811067ffffffffffffffff82111762000d1757604052565b90601f8019910116810190811067ffffffffffffffff82111762000d1757604052565b81601f82011215620002405780359067ffffffffffffffff821162000d17576040519262000da7601f8401601f19166020018562000d4b565b828452602083830101116200024057816000926020809301838601378301015290565b919082519283825260005b84811062000df7575050826000602080949584010152601f8019910116010190565b60208183018101518483018201520162000dd5565b908160209103126200024057516001600160a01b0381168103620002405790565b90816020910312620002405751801515810362000240579056fe60406080815234620003cb5762000d12803803806200001e81620003d0565b9283398101606082820312620003cb5781516001600160401b039290838111620003cb578262000050918301620003f6565b9260209283830151828111620003cb5786916200006f918501620003f6565b92015193805191808311620002cb5760038054936001938486811c96168015620003c0575b88871014620003aa578190601f9687811162000354575b508890878311600114620002ed57600092620002e1575b505060001982841b1c191690841b1781555b8451918211620002cb5760049485548481811c91168015620002c0575b88821014620002ab5785811162000260575b508690858411600114620001f557938394918492600095620001e9575b50501b92600019911b1c19161782555b3315620001aa5750600254908382018092116200019557506000917fddf252ad1be2c89b69c2b068fc378daa952ba7f163c4a11628f55a4df523b3ef9160025533835282815284832084815401905584519384523393a3516108a99081620004698239f35b601190634e487b7160e01b6000525260246000fd5b60649285519262461bcd60e51b845283015260248201527f45524332303a206d696e7420746f20746865207a65726f2061646472657373006044820152fd5b01519350388062000120565b9190601f198416928760005284896000209460005b8b898383106200024857505050106200022d575b50505050811b01825562000130565b01519060f884600019921b161c19169055388080806200021e565b8686015189559097019694850194889350016200020a565b86600052876000208680860160051c8201928a8710620002a1575b0160051c019085905b8281106200029457505062000103565b6000815501859062000284565b925081926200027b565b602287634e487b7160e01b6000525260246000fd5b90607f1690620000f1565b634e487b7160e01b600052604160045260246000fd5b015190503880620000c2565b90869350601f19831691856000528a6000209260005b8c8282106200033d575050841162000324575b505050811b018155620000d4565b015160001983861b60f8161c1916905538808062000316565b8385015186558a9790950194938401930162000303565b90915083600052886000208780850160051c8201928b8610620003a0575b918891869594930160051c01915b82811062000390575050620000ab565b6000815585945088910162000380565b9250819262000372565b634e487b7160e01b600052602260045260246000fd5b95607f169562000094565b600080fd5b6040519190601f01601f191682016001600160401b03811183821017620002cb57604052565b919080601f84011215620003cb5782516001600160401b038111620002cb576020906200042c601f8201601f19168301620003d0565b92818452828287010111620003cb5760005b8181106200045457508260009394955001015290565b85810183015184820184015282016200043e56fe608060408181526004918236101561001657600080fd5b600092833560e01c91826306fdde03146104ad57508163095ea7b31461048357816318160ddd1461046457816323b872dd1461039a578163313ce5671461037e578163395093511461031757816370a08231146102e057816395d89b41146101c1578163a457c2d71461011957508063a9059cbb146100e95763dd62ed3e1461009e57600080fd5b346100e557806003193601126100e557806020926100ba6105d2565b6100c26105ed565b6001600160a01b0391821683526001865283832091168252845220549051908152f35b5080fd5b50346100e557806003193601126100e5576020906101126101086105d2565b6024359033610603565b5160018152f35b905082346101be57826003193601126101be576101346105d2565b918360243592338152600160205281812060018060a01b038616825260205220549082821061016d576020856101128585038733610771565b608490602086519162461bcd60e51b8352820152602560248201527f45524332303a2064656372656173656420616c6c6f77616e63652062656c6f77604482015264207a65726f60d81b6064820152fd5b80fd5b8383346100e557816003193601126100e557805190828454600181811c908083169283156102d6575b60209384841081146102c3578388529081156102a75750600114610252575b505050829003601f01601f191682019267ffffffffffffffff84118385101761023f575082918261023b925282610589565b0390f35b634e487b7160e01b815260418552602490fd5b8787529192508591837f8a35acfbc15ff81a39ae7d344fd709f28e8600b4aa8c65c6b64bfe7fe36bd19b5b8385106102935750505050830101858080610209565b80548886018301529301928490820161027d565b60ff1916878501525050151560051b8401019050858080610209565b634e487b7160e01b895260228a52602489fd5b91607f16916101ea565b5050346100e55760203660031901126100e55760209181906001600160a01b036103086105d2565b16815280845220549051908152f35b8284346101be57816003193601126101be576103316105d2565b338252600160209081528383206001600160a01b038316845290528282205460243581019290831061036b57602084610112858533610771565b634e487b7160e01b815260118552602490fd5b5050346100e557816003193601126100e5576020905160128152f35b839150346100e55760603660031901126100e5576103b66105d2565b6103be6105ed565b91846044359460018060a01b0384168152600160205281812033825260205220549060001982036103f8575b602086610112878787610603565b84821061042157509183916104166020969561011295033383610771565b9193948193506103ea565b606490602087519162461bcd60e51b8352820152601d60248201527f45524332303a20696e73756666696369656e7420616c6c6f77616e63650000006044820152fd5b5050346100e557816003193601126100e5576020906002549051908152f35b5050346100e557806003193601126100e5576020906101126104a36105d2565b6024359033610771565b8490843461058557826003193601126105855782600354600181811c9080831692831561057b575b60209384841081146102c3578388529081156102a7575060011461052557505050829003601f01601f191682019267ffffffffffffffff84118385101761023f575082918261023b925282610589565b600387529192508591837fc2575a0e9e593c00f959f8c92f12db2869c3395a3b0502d05e2516446f71f85b5b8385106105675750505050830101858080610209565b805488860183015293019284908201610551565b91607f16916104d5565b8280fd5b6020808252825181830181905290939260005b8281106105be57505060409293506000838284010152601f8019910116010190565b81810186015184820160400152850161059c565b600435906001600160a01b03821682036105e857565b600080fd5b602435906001600160a01b03821682036105e857565b6001600160a01b0390811691821561071e57169182156106cd5760008281528060205260408120549180831061067957604082827fddf252ad1be2c89b69c2b068fc378daa952ba7f163c4a11628f55a4df523b3ef958760209652828652038282205586815220818154019055604051908152a3565b60405162461bcd60e51b815260206004820152602660248201527f45524332303a207472616e7366657220616d6f756e7420657863656564732062604482015265616c616e636560d01b6064820152608490fd5b60405162461bcd60e51b815260206004820152602360248201527f45524332303a207472616e7366657220746f20746865207a65726f206164647260448201526265737360e81b6064820152608490fd5b60405162461bcd60e51b815260206004820152602560248201527f45524332303a207472616e736665722066726f6d20746865207a65726f206164604482015264647265737360d81b6064820152608490fd5b6001600160a01b0390811691821561082257169182156107d25760207f8c5be1e5ebec7d5bd14f71427d1e84f3dd0314c0f7b2291e5b200ac8c7c3b925918360005260018252604060002085600052825280604060002055604051908152a3565b60405162461bcd60e51b815260206004820152602260248201527f45524332303a20617070726f766520746f20746865207a65726f206164647265604482015261737360f01b6064820152608490fd5b60405162461bcd60e51b8152602060048201526024808201527f45524332303a20617070726f76652066726f6d20746865207a65726f206164646044820152637265737360e01b6064820152608490fdfea26469706673582212208808c5c601015ca47804cdbb753075dcdc29c4348620ef8ad971a45ee3e6788364736f6c63430008130033a2646970667358221220e306030044a79e09ac1a6af13a360b47b4f32c1cc269e7e9784376da08d79aaf64736f6c63430008130033",
  "devdoc": {
    "kind": "dev",
    "methods": {},
    "version": 1
  },
  "userdoc": {
    "kind": "user",
    "methods": {},
    "version": 1
  },
  "storageLayout": {
    "storage": [
      {
        "astId": 2844,
        "contract": "contracts/PresaleMaker.sol:PresaleMaker",
        "label": "pluginFactory",
        "offset": 0,
        "slot": "0",
        "type": "t_contract(IAlgebraPluginFactory)249"
      },
      {
        "astId": 2847,
        "contract": "contracts/PresaleMaker.sol:PresaleMaker",
        "label": "pluginConfig",
        "offset": 20,
        "slot": "0",
        "type": "t_uint8"
      },
      {
        "astId": 2850,
        "contract": "contracts/PresaleMaker.sol:PresaleMaker",
        "label": "fee",
        "offset": 0,
        "slot": "1",
        "type": "t_uint256"
      },
      {
        "astId": 2853,
        "contract": "contracts/PresaleMaker.sol:PresaleMaker",
        "label": "ethFee",
        "offset": 0,
        "slot": "2",
        "type": "t_uint256"
      },
      {
        "astId": 2855,
        "contract": "contracts/PresaleMaker.sol:PresaleMaker",
        "label": "feeVault",
        "offset": 0,
        "slot": "3",
        "type": "t_address"
      },
      {
        "astId": 2858,
        "contract": "contracts/PresaleMaker.sol:PresaleMaker",
        "label": "minimalTotalSupply",
        "offset": 0,
        "slot": "4",
        "type": "t_uint256"
      },
      {
        "astId": 2861,
        "contract": "contracts/PresaleMaker.sol:PresaleMaker",
        "label": "factory",
        "offset": 0,
        "slot": "5",
        "type": "t_contract(IAlgebraFactory)211"
      },
      {
        "astId": 2864,
        "contract": "contracts/PresaleMaker.sol:PresaleMaker",
        "label": "positionManager",
        "offset": 0,
        "slot": "6",
        "type": "t_contract(INonfungiblePositionManager)1675"
      },
      {
        "astId": 2867,
        "contract": "contracts/PresaleMaker.sol:PresaleMaker",
        "label": "presaleManager",
        "offset": 0,
        "slot": "7",
        "type": "t_contract(PresaleManager)3436"
      }
    ],
    "types": {
      "t_address": {
        "encoding": "inplace",
        "label": "address",
        "numberOfBytes": "20"
      },
      "t_contract(IAlgebraFactory)211": {
        "encoding": "inplace",
        "label": "contract IAlgebraFactory",
        "numberOfBytes": "20"
      },
      "t_contract(IAlgebraPluginFactory)249": {
        "encoding": "inplace",
        "label": "contract IAlgebraPluginFactory",
        "numberOfBytes": "20"
      },
      "t_contract(INonfungiblePositionManager)1675": {
        "encoding": "inplace",
        "label": "contract INonfungiblePositionManager",
        "numberOfBytes": "20"
      },
      "t_contract(PresaleManager)3436": {
        "encoding": "inplace",
        "label": "contract PresaleManager",
        "numberOfBytes": "20"
      },
      "t_uint256": {
        "encoding": "inplace",
        "label": "uint256",
        "numberOfBytes": "32"
      },
      "t_uint8": {
        "encoding": "inplace",
        "label": "uint8",
        "numberOfBytes": "1"
      }
    }
  }
}