{
  "address": "0x528394CE0Ad04956305F0D5C10251FeCc7882f6c",
  "abi": [
    {
      "inputs": [
        {
          "internalType": "address",
          "name": "_WNativeToken",
          "type": "address"
        },
        {
          "internalType": "contract INonfungiblePositionManager",
          "name": "_positionManager",
          "type": "address"
        }
      ],
      "stateMutability": "nonpayable",
      "type": "constructor"
    },
    {
      "anonymous": false,
      "inputs": [
        {
          "indexed": false,
          "internalType": "address",
          "name": "from",
          "type": "address"
        },
        {
          "indexed": false,
          "internalType": "string",
          "name": "name",
          "type": "string"
        },
        {
          "indexed": false,
          "internalType": "string",
          "name": "symbol",
          "type": "string"
        },
        {
          "indexed": false,
          "internalType": "uint256",
          "name": "presaleAmount",
          "type": "uint256"
        },
        {
          "indexed": false,
          "internalType": "address",
          "name": "token",
          "type": "address"
        },
        {
          "indexed": false,
          "internalType": "address",
          "name": "pairAddress",
          "type": "address"
        },
        {
          "indexed": false,
          "internalType": "uint256",
          "name": "totalSupply",
          "type": "uint256"
        },
        {
          "indexed": false,
          "internalType": "uint256",
          "name": "minterAllocation",
          "type": "uint256"
        },
        {
          "indexed": false,
          "internalType": "string",
          "name": "data",
          "type": "string"
        }
      ],
      "name": "PresaleCreated",
      "type": "event"
    },
    {
      "inputs": [],
      "name": "WNativeToken",
      "outputs": [
        {
          "internalType": "address",
          "name": "",
          "type": "address"
        }
      ],
      "stateMutability": "view",
      "type": "function"
    },
    {
      "inputs": [
        {
          "internalType": "address",
          "name": "pair",
          "type": "address"
        }
      ],
      "name": "getPresale",
      "outputs": [
        {
          "components": [
            {
              "internalType": "string",
              "name": "name",
              "type": "string"
            },
            {
              "internalType": "string",
              "name": "symbol",
              "type": "string"
            },
            {
              "internalType": "uint256",
              "name": "presaleAmount",
              "type": "uint256"
            },
            {
              "internalType": "address",
              "name": "token",
              "type": "address"
            },
            {
              "internalType": "address",
              "name": "pair",
              "type": "address"
            },
            {
              "internalType": "uint256",
              "name": "totalSupply",
              "type": "uint256"
            },
            {
              "internalType": "uint256",
              "name": "minterAllocation",
              "type": "uint256"
            },
            {
              "internalType": "string",
              "name": "data",
              "type": "string"
            },
            {
              "internalType": "uint256",
              "name": "positionTokenId",
              "type": "uint256"
            },
            {
              "internalType": "bool",
              "name": "released",
              "type": "bool"
            }
          ],
          "internalType": "struct Presale",
          "name": "",
          "type": "tuple"
        }
      ],
      "stateMutability": "view",
      "type": "function"
    },
    {
      "inputs": [
        {
          "internalType": "address",
          "name": "poolAddress",
          "type": "address"
        }
      ],
      "name": "getProgress",
      "outputs": [
        {
          "internalType": "uint256",
          "name": "",
          "type": "uint256"
        }
      ],
      "stateMutability": "view",
      "type": "function"
    },
    {
      "inputs": [
        {
          "internalType": "address",
          "name": "operator",
          "type": "address"
        },
        {
          "internalType": "address",
          "name": "",
          "type": "address"
        },
        {
          "internalType": "uint256",
          "name": "tokenId",
          "type": "uint256"
        },
        {
          "internalType": "bytes",
          "name": "",
          "type": "bytes"
        }
      ],
      "name": "onERC721Received",
      "outputs": [
        {
          "internalType": "bytes4",
          "name": "",
          "type": "bytes4"
        }
      ],
      "stateMutability": "nonpayable",
      "type": "function"
    },
    {
      "inputs": [],
      "name": "positionManager",
      "outputs": [
        {
          "internalType": "contract INonfungiblePositionManager",
          "name": "",
          "type": "address"
        }
      ],
      "stateMutability": "view",
      "type": "function"
    },
    {
      "inputs": [
        {
          "internalType": "address",
          "name": "",
          "type": "address"
        }
      ],
      "name": "presales",
      "outputs": [
        {
          "internalType": "string",
          "name": "name",
          "type": "string"
        },
        {
          "internalType": "string",
          "name": "symbol",
          "type": "string"
        },
        {
          "internalType": "uint256",
          "name": "presaleAmount",
          "type": "uint256"
        },
        {
          "internalType": "address",
          "name": "token",
          "type": "address"
        },
        {
          "internalType": "address",
          "name": "pair",
          "type": "address"
        },
        {
          "internalType": "uint256",
          "name": "totalSupply",
          "type": "uint256"
        },
        {
          "internalType": "uint256",
          "name": "minterAllocation",
          "type": "uint256"
        },
        {
          "internalType": "string",
          "name": "data",
          "type": "string"
        },
        {
          "internalType": "uint256",
          "name": "positionTokenId",
          "type": "uint256"
        },
        {
          "internalType": "bool",
          "name": "released",
          "type": "bool"
        }
      ],
      "stateMutability": "view",
      "type": "function"
    },
    {
      "inputs": [
        {
          "components": [
            {
              "internalType": "string",
              "name": "name",
              "type": "string"
            },
            {
              "internalType": "string",
              "name": "symbol",
              "type": "string"
            },
            {
              "internalType": "uint256",
              "name": "presaleAmount",
              "type": "uint256"
            },
            {
              "internalType": "address",
              "name": "token",
              "type": "address"
            },
            {
              "internalType": "address",
              "name": "pair",
              "type": "address"
            },
            {
              "internalType": "uint256",
              "name": "totalSupply",
              "type": "uint256"
            },
            {
              "internalType": "uint256",
              "name": "minterAllocation",
              "type": "uint256"
            },
            {
              "internalType": "string",
              "name": "data",
              "type": "string"
            },
            {
              "internalType": "uint256",
              "name": "positionTokenId",
              "type": "uint256"
            },
            {
              "internalType": "bool",
              "name": "released",
              "type": "bool"
            }
          ],
          "internalType": "struct Presale",
          "name": "presale",
          "type": "tuple"
        }
      ],
      "name": "putPresale",
      "outputs": [],
      "stateMutability": "nonpayable",
      "type": "function"
    },
    {
      "inputs": [
        {
          "internalType": "address",
          "name": "poolAddress",
          "type": "address"
        }
      ],
      "name": "release",
      "outputs": [],
      "stateMutability": "nonpayable",
      "type": "function"
    },
    {
      "inputs": [],
      "name": "releaseExecutor",
      "outputs": [
        {
          "internalType": "contract PresaleReleaseExcutor",
          "name": "",
          "type": "address"
        }
      ],
      "stateMutability": "view",
      "type": "function"
    }
  ],
  "transactionHash": "0xe4df95e98c0e7c17452baea88535e8b1706776f78be36dbecc961b97af8a84d1",
  "args": [
    "0x4200000000000000000000000000000000000006",
    "0x2e8614625226D26180aDf6530C3b1677d3D7cf10"
  ],
  "numDeployments": 2,
  "solcInputHash": "6523e5f34d40efa8c52693280e8a7dc0",
  "bytecode": "0x60a034610103576122f4906001600160401b03601f38849003908101601f1916830190828211848310176100ed57808491604096879485528339810103126101035781516001600160a01b03808216939092919084820361010357602001519083821680920361010357608052600280546001600160a01b031990811683179091558551909490926110c091828501918211858310176100ed57606093859361123485398252602082015230878201520301906000f080156100e257169060005416176000555161112b908161010982396080518181816101d70152610fe00152f35b83513d6000823e3d90fd5b634e487b7160e01b600052604160045260246000fd5b600080fdfe608080604052600436101561001357600080fd5b600090813560e01c908163150b7a0214610c21575080631916558714610ac15780633c1d0d77146103e957806377ce88eb1461022f578063791b98bc146102065780638af3ac85146101c1578063aef7650114610195578063c6bbfc4d1461016e5763efcd708f1461008457600080fd5b3461016b57602036600319011261016b57610123906001600160a01b0390604090826100ae610c97565b1681526001602052206100c081610e00565b916101586100d060018401610e00565b91600284015490806003860154169060048601541660058601546006870154916100fc60078901610e00565b9361013160ff600960088c01549b015416986040519c8d9c8d610140908181520190610d86565b8c810360208e015290610d86565b9560408b015260608a0152608089015260a088015260c087015285820360e0870152610d86565b9161010084015215156101208301520390f35b80fd5b503461016b578060031936011261016b57546040516001600160a01b039091168152602090f35b503461016b57602036600319011261016b5760206101b96101b4610c97565b610eda565b604051908152f35b503461016b578060031936011261016b576040517f00000000000000000000000000000000000000000000000000000000000000006001600160a01b03168152602090f35b503461016b578060031936011261016b576002546040516001600160a01b039091168152602090f35b503461016b57602036600319011261016b5760409061024c610c97565b81610120845161025b81610cf0565b606081526060602082015282868201528260608201528260808201528260a08201528260c0820152606060e082015282610100820152015260018060a01b0316815260016020522060ff6009604051926102b484610cf0565b6102bd81610e00565b84526102cb60018201610e00565b60208501526002810154604085015260038101546001600160a01b0390811660608601526004820154166080850152600581015460a0850152600681015460c085015261031a60078201610e00565b60e0850152600881015461010085015201541615156101208201526040518091602082526101206103d061035c83516101406020870152610160860190610d86565b610378602085015191601f199283888303016040890152610d86565b906040850151606087015260018060a01b03606086015116608087015260018060a01b0360808601511660a087015260a085015160c087015260c085015160e087015260e08501519086830301610100870152610d86565b9161010081015182850152015115156101408301520390f35b503461016b576003199060203683011261016b576004359167ffffffffffffffff83116107f05761014090833603011261016b576040519161042a83610cf0565b806004013567ffffffffffffffff81116107ff5761044e9060043691840101610d2f565b8352602481013567ffffffffffffffff81116107ff576104749060043691840101610d2f565b60208401526044810135604084015261048f60648201610cb2565b60608401526104a060848201610cb2565b608084015260a481013560a084015260c481013560c084015260e481013567ffffffffffffffff81116107ff576104dd9060043691840101610d2f565b60e084015261010481013561010084015261012481013580151590036107f057610124013561012083015260808201516001600160a01b0316815260016020526040812060020154610a7c5760018060a01b03608083015116815260016020526040812090825192835167ffffffffffffffff8111610a68576105608454610dc6565b601f8111610a27575b506020601f82116001146109c157839495829394926109b6575b50508160011b916000199060031b1c19161783555b602081015192835167ffffffffffffffff81116109a2576105bc6001830154610dc6565b601f811161095e575b506020601f82116001146108f257849582939495926108e7575b50508160011b916000199060031b1c19161760018201555b6040820151600282015560608201516003820180546001600160a01b039283166001600160a01b031991821617909155608084015160048401805491909316911617905560a0820151600582015560c0820151600682015560e082015180519067ffffffffffffffff82116108d357908291610677600787950154610dc6565b601f8111610880575b50602090601f831160011461080e5784919083610803575b50508160011b916000199060031b1c19161760078201555b60096101008401519182600882015501610120840151151560ff8019835416911617905560018060a01b0360025416803b156107ff576040516323b872dd60e01b8152336004820152306024820152604481019290925282908290606490829084905af180156107f4576107dc575b507f82a72e7d5a3cb27a8e4e7b43e6ee543258257d8755df47334cecdbfd17676f976107a0836107d6815191602081015160408201519160018060a01b0360608201511660018060a01b0360808301511660a0830151916107ae60e060c0860151950151956040519a8b9a338c5261012060208d01526101208c0190610d86565b908a820360408c0152610d86565b956060890152608088015260a087015260c086015260e0850152838203610100850152610d86565b0390a180f35b6107e590610cc6565b6107f057813861071f565b5080fd5b6040513d84823e3d90fd5b8280fd5b015190503880610698565b939291906007830184526020842090845b601f19841681106108655750600193949583601f1981161061084c575b505050811b0160078201556106b0565b015160001960f88460031b161c1916905538808061083c565b8682015183558895506001909201916020918201910161081f565b909192935060078401865260208620601f840160051c8101602085106108cc575b908795949392915b601f830160051c820181106108bf575050610680565b95865587956001016108a9565b50806108a1565b634e487b7160e01b85526041600452602485fd5b0151905038806105df565b6001830185526020852090855b601f1984168110610946575060019394959683601f1981161061092d575b505050811b0160018201556105f7565b015160001960f88460031b161c1916905538808061091d565b9091602060018192858b0151815501930191016108ff565b60018301855260208520601f830160051c81016020841061099b575b601f830160051c820181106109905750506105c5565b86815560010161097a565b508061097a565b634e487b7160e01b84526041600452602484fd5b015190503880610583565b8484526020842090845b601f1984168110610a0f575060019394959683601f198116106109f6575b505050811b018355610598565b015160001960f88460031b161c191690553880806109e9565b9091602060018192858b0151815501930191016109cb565b84845260208420601f830160051c810160208410610a61575b601f830160051c82018110610a56575050610569565b858155600101610a40565b5080610a40565b634e487b7160e01b83526041600452602483fd5b60405162461bcd60e51b815260206004820152601e60248201527f50726573616c654d616e616765723a20616c72656164792065786973747300006044820152606490fd5b503461016b57602036600319011261016b57610adb610c97565b906064610ae783610eda565b10610bcc5760018060a01b038092168082526001602052600860408320015492806002541681845416813b15610bc8576040516323b872dd60e01b81523060048201526001600160a01b03919091166024820152604481019590955283908590606490829084905af18015610bbd57610ba9575b82809450541690813b15610ba5578291602483926040519485938492631916558760e01b845260048401525af180156107f457610b955750f35b610b9e90610cc6565b61016b5780f35b5050fd5b919092610bb590610cc6565b908290610b5b565b6040513d85823e3d90fd5b8480fd5b60405162461bcd60e51b815260206004820152602760248201527f50726573616c654d616e61676572203a2070726f6772657373206973206e6f74604482015266040cadcdeeaced60cb1b6064820152608490fd5b9050346107f05760803660031901126107f057610c3c610c97565b506024356001600160a01b038116036107f05760643567ffffffffffffffff808211610c935736602383011215610c93578160040135908111610c9357369101602401116107f057630a85bd0160e11b8152602090f35b8380fd5b600435906001600160a01b0382168203610cad57565b600080fd5b35906001600160a01b0382168203610cad57565b67ffffffffffffffff8111610cda57604052565b634e487b7160e01b600052604160045260246000fd5b610140810190811067ffffffffffffffff821117610cda57604052565b90601f8019910116810190811067ffffffffffffffff821117610cda57604052565b81601f82011215610cad5780359067ffffffffffffffff8211610cda5760405192610d64601f8401601f191660200185610d0d565b82845260208383010111610cad57816000926020809301838601378301015290565b919082519283825260005b848110610db2575050826000602080949584010152601f8019910116010190565b602081830181015184830182015201610d91565b90600182811c92168015610df6575b6020831014610de057565b634e487b7160e01b600052602260045260246000fd5b91607f1691610dd5565b9060405191826000825492610e1484610dc6565b908184526001948581169081600014610e835750600114610e40575b5050610e3e92500383610d0d565b565b9093915060005260209081600020936000915b818310610e6b575050610e3e93508201013880610e30565b85548884018501529485019487945091830191610e53565b915050610e3e94506020925060ff191682840152151560051b8201013880610e30565b51906001600160801b0382168203610cad57565b8115610ec4570490565b634e487b7160e01b600052601260045260246000fd5b9060018060a01b03809216600092818452602091600183526040808620928151610f0381610cf0565b610f0c85610e00565b8152610f1a60018601610e00565b8682015261012060ff6009600288015497868501988952856003820154166060860152856004820154166080860152600581015460a0860152600681015460c0860152610f6960078201610e00565b60e0860152600881015461010086015201541615159101528151630240bc6b60e21b8152948286600481875afa9586156110eb578890899761109e575b5090806004926001600160801b03809116981695855193848092630dfe168160e01b82525afa93841561109557508893611058575b5050807f00000000000000000000000000000000000000000000000000000000000000001691161460001461103d575081606402916064830403611029576110269293505190610eba565b90565b634e487b7160e01b84526011600452602484fd5b60648082029350830403611029576110269293505190610eba565b9080929350813d831161108e575b6110708183610d0d565b8101031261108a5751818116810361108a57903880610fdb565b8680fd5b503d611066565b513d8a823e3d90fd5b809750848092503d83116110e4575b6110b78183610d0d565b810103126110e05780806110d76004936110d08a610ea6565b9901610ea6565b97919250610fa6565b8780fd5b503d6110ad565b83513d8a823e3d90fdfea264697066735822122074cb2d801524649670396abe679f11e0ccdfa7f3ea4f3b79fd3344b81f15732664736f6c6343000813003360a0346100c157601f6110c038819003918201601f19168301916001600160401b038311848410176100c6578084926060946040528339810103126100c15780516001600160a01b0391828216918290036100c15760208101519083821682036100c157604001519283168093036100c15760018060a01b0319918260005416176000556080526001541617600155604051610fe390816100dd8239608051818181606401528181610437015281816104f101528181610a610152610aac0152f35b600080fd5b634e487b7160e01b600052604160045260246000fdfe608080604052600436101561001a575b50361561001857005b005b600090813560e01c90816319165587146100e6575080632c012f89146100bd578063791b98bc1461009657638af3ac850361000f57346100935780600319360112610093576040517f00000000000000000000000000000000000000000000000000000000000000006001600160a01b03168152602090f35b80fd5b5034610093578060031936011261009357546040516001600160a01b039091168152602090f35b50346100935780600319360112610093576001546040516001600160a01b039091168152602090f35b9050346109bf5760203660031901126109bf57600435906001600160a01b0382168203610974576001546001600160a01b03169033829003610e2257506040516377ce88eb60e01b81526001600160a01b0383166004820152908390829060249082905afa908115610980578391610d20575b50610120810151610cca576101008101518361014060405161017a81610e90565b8281528260208201528260408201528260608201528260808201528260a08201528260c08201528260e08201528261010082015282610120820152015260018060a01b03845416906040519063133f757160e31b8252600482015261016081602481855afa8015610a54578580928193828384908592869887958897899a610bd0575b50936001600160801b03979361022d9a97938997936affffffffffffffffffffff6101409c986040519e8f610e90565b168d526001600160a01b0390811660208e015290811660408d01521660608b0152600290810b60808b01520b60a089015288841660c089015260e08801526101008088019190915291166101208601529116919092015283015190426064810110610bbc57604051918260a081011067ffffffffffffffff60a085011117610ba857826001600160801b0360809360a49360a06040970187528352166020820152878482015287606082015260644201838201528784519586948593630624e65f60e11b8552805160048601526001600160801b03602082015116602486015287810151604486015260608101516064860152015160848401525af18015610b3d57610b8a575b5060018060a01b038354166101008201516040519081608081011067ffffffffffffffff608084011117610b765760808201604090815290825230602083019081526001600160801b0382840181815260608501828152845163fc6f786560e01b81529551600487015292516001600160a01b031660248601525181166044850152905116606483015290918290608490829088905af18015610b3d57610b48575b50825461010082015184916001600160a01b0316803b1561097457602483926040519485938492630852cd8d60e31b845260048401525af18015610b3d57610b2a575b506040516370a0823160e01b815230600482015283906020816024817f00000000000000000000000000000000000000000000000000000000000000006001600160a01b03165afa9081156107ef578291610af5575b5080610a5f575b5050606001516040516370a0823160e01b8152306004820152916001600160a01b03909116904790602084602481865afa938415610a54578594610a1b575b50604051630dfe168160e01b81526020816004816001600160a01b0386165afa908115610a105786916109d2575b506001600160a01b039081167f0000000000000000000000000000000000000000000000000000000000000000909116036109cb578193905b6040516334324e9f60e21b81529386906020866004816001600160a01b0387165afa9586156107ef57829661098b575b5060405163095ea7b360e01b81526001600160a01b038416600482015260001960248201529060208260448186855af1801561098057610942575b825460405163095ea7b360e01b81526001600160a01b03909116600482015260001960248201529260209250839160449183915af18015610937576108fa575b508554604051630dfe168160e01b81526001600160a01b039182169590916020908390600490829087165afa9182156108ae5788926108b9575b5060405163d21220a760e01b815292602090849060049082906001600160a01b03165afa9283156108ae57889361086e575b5060020b93841561085857627fffff96620d89e7199490627fffff1987870760020b8703818112908b121761084257620d89e899888b0760020b8b0391821291131761084257899860809761012097610144976040519761069389610e5d565b60018060a01b0316885260018060a01b0316602088015281810760020b900360020b6040870152810760020b900360020b60608501528684015260a08301528660c08301528660e08301523061010083015260644201848301526040519586948593639cc1a28360e01b855260018060a01b03815116600486015260018060a01b036020820151166024860152604081015160020b6044860152606081015160020b606486015287810151608486015260a081015160a486015260c081015160c486015260e081015160e486015260018060a01b036101008201511661010486015201516101248401525af19081156107ef5782916107ff575b5081546001546001600160a01b0391821692911690823b156107fa57606484928360405195869485936323b872dd60e01b8552306004860152602485015260448401525af180156107ef576107df5750f35b6107e890610ead565b6100935780f35b6040513d84823e3d90fd5b505050fd5b90506080813d60801161083a575b8161081a60809383610ec1565b8101031261083757610830602082519201610f99565b503861078d565b50fd5b3d915061080d565b634e487b7160e01b600052601160045260246000fd5b634e487b7160e01b600052601260045260246000fd5b9092506020813d6020116108a6575b8161088a60209383610ec1565b810103126108a25761089b90610f54565b9138610633565b8780fd5b3d915061087d565b6040513d8a823e3d90fd5b9291506020833d6020116108f2575b816108d560209383610ec1565b810103126108a25760206108ea600494610f54565b929350610601565b3d91506108c8565b6020813d60201161092f575b8161091360209383610ec1565b8101031261092b5761092490610f68565b50386105c7565b8680fd5b3d9150610906565b6040513d89823e3d90fd5b6020823d602011610978575b8161095b60209383610ec1565b810103126109745761096e602092610f68565b50610587565b8280fd5b3d915061094e565b6040513d85823e3d90fd5b9095506020813d6020116109c3575b816109a760209383610ec1565b810103126109bf576109b890610f8b565b943861054c565b5080fd5b3d915061099a565b819061051c565b90506020813d602011610a08575b816109ed60209383610ec1565b81010312610a04576109fe90610f54565b386104e3565b8580fd5b3d91506109e0565b6040513d88823e3d90fd5b9093506020813d602011610a4c575b81610a3760209383610ec1565b81010312610a47575192386104b5565b600080fd5b3d9150610a2a565b6040513d87823e3d90fd5b7f00000000000000000000000000000000000000000000000000000000000000006001600160a01b03163b156109bf57604051632e1a7d4d60e01b815260048101919091528181602481837f00000000000000000000000000000000000000000000000000000000000000006001600160a01b03165af180156107ef571561047657610aea90610ead565b610974578238610476565b9150506020813d602011610b22575b81610b1160209383610ec1565b81010312610a47578390513861046f565b3d9150610b04565b610b3690939193610ead565b9138610419565b6040513d86823e3d90fd5b610b699060403d604011610b6f575b610b618183610ec1565b810190610f75565b506103d6565b503d610b57565b634e487b7160e01b86526041600452602486fd5b610ba29060403d604011610b6f57610b618183610ec1565b50610334565b634e487b7160e01b87526041600452602487fd5b634e487b7160e01b86526011600452602486fd5b9a5050505050505050505050610160813d61016011610cc2575b81610bf86101609383610ec1565b81010312610cbe5780516affffffffffffffffffffff81168103610a04576101406001600160801b0361022d9281610c3260208701610f54565b91610c3f60408801610f54565b96610c4c60608201610f54565b97610c5960808301610f8b565b610c6560a08401610f8b565b610c7160c08501610f99565b9160e08501519b610100860151946affffffffffffffffffffff610ca38d610c9c6101208b01610f99565b9901610f99565b959e959d50969b5094999398929750909590945090916101fd565b8480fd5b3d9150610bea565b60405162461bcd60e51b815260206004820152602860248201527f546f6b656e4d616b6572203a2070726573616c6520697320616c7265616479206044820152671c995b19585cd95960c21b6064820152608490fd5b90503d8084833e610d318183610ec1565b810190602081830312610e1e57805167ffffffffffffffff91828211610a0457019061014082840312610cbe5760405192610d6b84610e5d565b825182811161092b5781610d80918501610ee3565b8452602083015182811161092b5781610d9a918501610ee3565b602085015260408301516040850152610db560608401610f54565b6060850152610dc660808401610f54565b608085015260a083015160a085015260c083015160c085015260e0830151918211610a0457610df6918301610ee3565b60e08301526101008082015190830152610e14610120809201610f68565b9082015238610159565b8380fd5b62461bcd60e51b81526020600482015260166024820152752a37b5b2b726b0b5b2b9101d102327a92124a22222a760511b6044820152606490fd5b610140810190811067ffffffffffffffff821117610e7a57604052565b634e487b7160e01b600052604160045260246000fd5b610160810190811067ffffffffffffffff821117610e7a57604052565b67ffffffffffffffff8111610e7a57604052565b90601f8019910116810190811067ffffffffffffffff821117610e7a57604052565b919080601f84011215610a475782519067ffffffffffffffff8211610e7a5760405191602091610f1c601f8301601f1916840185610ec1565b818452828287010111610a475760005b818110610f4157508260009394955001015290565b8581018301518482018401528201610f2c565b51906001600160a01b0382168203610a4757565b51908115158203610a4757565b9190826040910312610a47576020825192015190565b51908160020b8203610a4757565b51906001600160801b0382168203610a475756fea2646970667358221220acfc4cd6219026d6b169a07fabb323cff98f25328d2212124301647b0312366e64736f6c63430008130033",
  "devdoc": {
    "kind": "dev",
    "methods": {},
    "version": 1
  },
  "userdoc": {
    "kind": "user",
    "methods": {},
    "version": 1
  },
  "storageLayout": {
    "storage": [
      {
        "astId": 3188,
        "contract": "contracts/PresaleManager.sol:PresaleManager",
        "label": "releaseExecutor",
        "offset": 0,
        "slot": "0",
        "type": "t_contract(PresaleReleaseExcutor)3858"
      },
      {
        "astId": 3195,
        "contract": "contracts/PresaleManager.sol:PresaleManager",
        "label": "presales",
        "offset": 0,
        "slot": "1",
        "type": "t_mapping(t_address,t_struct(Presale)3457_storage)"
      },
      {
        "astId": 3198,
        "contract": "contracts/PresaleManager.sol:PresaleManager",
        "label": "positionManager",
        "offset": 0,
        "slot": "2",
        "type": "t_contract(INonfungiblePositionManager)1675"
      }
    ],
    "types": {
      "t_address": {
        "encoding": "inplace",
        "label": "address",
        "numberOfBytes": "20"
      },
      "t_bool": {
        "encoding": "inplace",
        "label": "bool",
        "numberOfBytes": "1"
      },
      "t_contract(INonfungiblePositionManager)1675": {
        "encoding": "inplace",
        "label": "contract INonfungiblePositionManager",
        "numberOfBytes": "20"
      },
      "t_contract(PresaleReleaseExcutor)3858": {
        "encoding": "inplace",
        "label": "contract PresaleReleaseExcutor",
        "numberOfBytes": "20"
      },
      "t_mapping(t_address,t_struct(Presale)3457_storage)": {
        "encoding": "mapping",
        "key": "t_address",
        "label": "mapping(address => struct Presale)",
        "numberOfBytes": "32",
        "value": "t_struct(Presale)3457_storage"
      },
      "t_string_storage": {
        "encoding": "bytes",
        "label": "string",
        "numberOfBytes": "32"
      },
      "t_struct(Presale)3457_storage": {
        "encoding": "inplace",
        "label": "struct Presale",
        "members": [
          {
            "astId": 3438,
            "contract": "contracts/PresaleManager.sol:PresaleManager",
            "label": "name",
            "offset": 0,
            "slot": "0",
            "type": "t_string_storage"
          },
          {
            "astId": 3440,
            "contract": "contracts/PresaleManager.sol:PresaleManager",
            "label": "symbol",
            "offset": 0,
            "slot": "1",
            "type": "t_string_storage"
          },
          {
            "astId": 3442,
            "contract": "contracts/PresaleManager.sol:PresaleManager",
            "label": "presaleAmount",
            "offset": 0,
            "slot": "2",
            "type": "t_uint256"
          },
          {
            "astId": 3444,
            "contract": "contracts/PresaleManager.sol:PresaleManager",
            "label": "token",
            "offset": 0,
            "slot": "3",
            "type": "t_address"
          },
          {
            "astId": 3446,
            "contract": "contracts/PresaleManager.sol:PresaleManager",
            "label": "pair",
            "offset": 0,
            "slot": "4",
            "type": "t_address"
          },
          {
            "astId": 3448,
            "contract": "contracts/PresaleManager.sol:PresaleManager",
            "label": "totalSupply",
            "offset": 0,
            "slot": "5",
            "type": "t_uint256"
          },
          {
            "astId": 3450,
            "contract": "contracts/PresaleManager.sol:PresaleManager",
            "label": "minterAllocation",
            "offset": 0,
            "slot": "6",
            "type": "t_uint256"
          },
          {
            "astId": 3452,
            "contract": "contracts/PresaleManager.sol:PresaleManager",
            "label": "data",
            "offset": 0,
            "slot": "7",
            "type": "t_string_storage"
          },
          {
            "astId": 3454,
            "contract": "contracts/PresaleManager.sol:PresaleManager",
            "label": "positionTokenId",
            "offset": 0,
            "slot": "8",
            "type": "t_uint256"
          },
          {
            "astId": 3456,
            "contract": "contracts/PresaleManager.sol:PresaleManager",
            "label": "released",
            "offset": 0,
            "slot": "9",
            "type": "t_bool"
          }
        ],
        "numberOfBytes": "320"
      },
      "t_uint256": {
        "encoding": "inplace",
        "label": "uint256",
        "numberOfBytes": "32"
      }
    }
  }
}